{
  "_format": "hh-sol-artifact-1",
  "contractName": "YoutubeDownLoader",
  "sourceName": "contracts/YoutubeDownLoader.sol",
  "abi": [
    {
      "anonymous": false,
      "inputs": [
        {
          "indexed": true,
          "internalType": "string",
          "name": "id",
          "type": "string"
        }
      ],
      "name": "NewVideo",
      "type": "event"
    },
    {
      "inputs": [
        {
          "internalType": "string",
          "name": "videoKey",
          "type": "string"
        },
        {
          "internalType": "string",
          "name": "contentCID",
          "type": "string"
        }
      ],
      "name": "createVideo",
      "outputs": [],
      "stateMutability": "nonpayable",
      "type": "function"
    },
    {
      "inputs": [
        {
          "internalType": "string",
          "name": "videoKey",
          "type": "string"
        }
      ],
      "name": "searchVideo",
      "outputs": [
        {
          "components": [
            {
              "internalType": "string",
              "name": "id",
              "type": "string"
            },
            {
              "internalType": "address",
              "name": "author",
              "type": "address"
            },
            {
              "internalType": "uint256",
              "name": "createdAtBlock",
              "type": "uint256"
            },
            {
              "internalType": "string",
              "name": "contentCID",
              "type": "string"
            }
          ],
          "internalType": "struct YoutubeDownLoader.Video",
          "name": "",
          "type": "tuple"
        }
      ],
      "stateMutability": "view",
      "type": "function"
    }
  ],
  "bytecode": "0x608060405234801561001057600080fd5b50610890806100206000396000f3fe608060405234801561001057600080fd5b50600436106100365760003560e01c80636cbb855d1461003b578063e07d79a614610057575b600080fd5b610055600480360381019061005091906104f6565b610087565b005b610071600480360381019061006c91906104b5565b6101b0565b60405161007e919061066b565b60405180910390f35b60405180608001604052808381526020013373ffffffffffffffffffffffffffffffffffffffff168152602001438152602001828152506000836040516100ce9190610654565b908152602001604051809103902060008201518160000190805190602001906100f892919061036c565b5060208201518160010160006101000a81548173ffffffffffffffffffffffffffffffffffffffff021916908373ffffffffffffffffffffffffffffffffffffffff16021790555060408201518160020155606082015181600301908051906020019061016692919061036c565b50905050806040516101789190610654565b60405180910390207ff3c8f0fa52e65f8bfa2ef45fcdd916633120d9e4682b5a8f33882e7dab73ea6160405160405180910390a25050565b6101b86103f2565b6000826040516101c89190610654565b90815260200160405180910390206040518060800160405290816000820180546101f190610788565b80601f016020809104026020016040519081016040528092919081815260200182805461021d90610788565b801561026a5780601f1061023f5761010080835404028352916020019161026a565b820191906000526020600020905b81548152906001019060200180831161024d57829003601f168201915b505050505081526020016001820160009054906101000a900473ffffffffffffffffffffffffffffffffffffffff1673ffffffffffffffffffffffffffffffffffffffff1673ffffffffffffffffffffffffffffffffffffffff168152602001600282015481526020016003820180546102e390610788565b80601f016020809104026020016040519081016040528092919081815260200182805461030f90610788565b801561035c5780601f106103315761010080835404028352916020019161035c565b820191906000526020600020905b81548152906001019060200180831161033f57829003601f168201915b5050505050815250509050919050565b82805461037890610788565b90600052602060002090601f01602090048101928261039a57600085556103e1565b82601f106103b357805160ff19168380011785556103e1565b828001600101855582156103e1579182015b828111156103e05782518255916020019190600101906103c5565b5b5090506103ee9190610430565b5090565b604051806080016040528060608152602001600073ffffffffffffffffffffffffffffffffffffffff16815260200160008152602001606081525090565b5b80821115610449576000816000905550600101610431565b5090565b600061046061045b846106b2565b61068d565b90508281526020810184848401111561047857600080fd5b610483848285610746565b509392505050565b600082601f83011261049c57600080fd5b81356104ac84826020860161044d565b91505092915050565b6000602082840312156104c757600080fd5b600082013567ffffffffffffffff8111156104e157600080fd5b6104ed8482850161048b565b91505092915050565b6000806040838503121561050957600080fd5b600083013567ffffffffffffffff81111561052357600080fd5b61052f8582860161048b565b925050602083013567ffffffffffffffff81111561054c57600080fd5b6105588582860161048b565b9150509250929050565b61056b8161070a565b82525050565b600061057c826106e3565b61058681856106ee565b9350610596818560208601610755565b61059f81610849565b840191505092915050565b60006105b5826106e3565b6105bf81856106ff565b93506105cf818560208601610755565b80840191505092915050565b600060808301600083015184820360008601526105f88282610571565b915050602083015161060d6020860182610562565b5060408301516106206040860182610645565b50606083015184820360608601526106388282610571565b9150508091505092915050565b61064e8161073c565b82525050565b600061066082846105aa565b915081905092915050565b6000602082019050818103600083015261068581846105db565b905092915050565b60006106976106a8565b90506106a382826107ba565b919050565b6000604051905090565b600067ffffffffffffffff8211156106cd576106cc61081a565b5b6106d682610849565b9050602081019050919050565b600081519050919050565b600082825260208201905092915050565b600081905092915050565b60006107158261071c565b9050919050565b600073ffffffffffffffffffffffffffffffffffffffff82169050919050565b6000819050919050565b82818337600083830152505050565b60005b83811015610773578082015181840152602081019050610758565b83811115610782576000848401525b50505050565b600060028204905060018216806107a057607f821691505b602082108114156107b4576107b36107eb565b5b50919050565b6107c382610849565b810181811067ffffffffffffffff821117156107e2576107e161081a565b5b80604052505050565b7f4e487b7100000000000000000000000000000000000000000000000000000000600052602260045260246000fd5b7f4e487b7100000000000000000000000000000000000000000000000000000000600052604160045260246000fd5b6000601f19601f830116905091905056fea264697066735822122084c3f2842b0462e580b8d2bc84c78ae716784efd4d75d76ba7c161a9274b372e64736f6c63430008030033",
  "linkReferences": {},
  "deployedLinkReferences": {}
}